:100000000EC01BC01AC019C018C017C016C015C03A
:1000100014C013C012C012C010C00FC00EC01124F3
:100020001FBECFEDCDBF10E0A0E6B0E001C01D9235
:10003000AF39B107E1F79DD124C2E2CF1F920F92F1
:100040000FB60F9211242F933F934F935F936F93AB
:100050007F938F939F93AF93BF93EF93FF9364B17D
:1000600075B17370809164009091650022B728315A
:10007000E8F3837099278230910581F083309105F0
:10008000B1F0019711F0C0981AC0809160008823E8
:1000900019F089E790E048D1C19A11C080916000C1
:1000A000882319F086E690E03FD1C19808C080917E
:1000B0006000882319F08CE890E036D1C09A8091D6
:1000C00064009091650001969093650080936400B0
:1000D000FF91EF91BF91AF919F918F917F916F9120
:1000E0005F914F913F912F910F900FBE0F901F90F6
:1000F0001895F8942091640030916500789480916F
:10010000620090916300281B390B243F314038F086
:10011000A8958C509E4F9093630080936200089541
:100120000F931F93CF93DF93EC01F8940091640039
:10013000109165007894DDDFF8942091640030918F
:1001400065007894201B310B2C173D07A0F3DF913D
:10015000CF911F910F910895FC019C01205F3F4FAB
:1001600011921192E217F307D9F7FC01128A118A52
:10017000108A0895CF93DF93CDB7DD27C850CDBF48
:10018000109260008CE890E0E7DF89E790E0E4DF20
:1001900086E690E0E1DFF8941CBC82E08ABD13BEE5
:1001A00012BE8CE789BD18BC88E088BF89BF83B7C1
:1001B000826083BF83E087B986EA86B985E083B928
:1001C0001092650010926400109263001092620019
:1001D0007894C9D0BB9884E090E0A2DF81E080935E
:1001E000600080E09DE79CDF1092600080917600C7
:1001F0009091770040919C0050919D002091890042
:1002000030918A00840F951F820F931F21E08C315B
:10021000924008F420E02093610082E087B9BB9A05
:1002200080916100811102C014E001C012E09ED0F3
:1002300080ED97E075DF97D080ED97E071DF11508A
:10024000B1F78CE890E088DF89E790E085DF86E60B
:1002500090E082DF81E08093600080E290E060DFE8
:10026000F89460919C0070919D004091890050919C
:100270008A00809176009091770078946033ABE1AA
:100280007A0720F44033BBE15B0710F06FD04AC01F
:100290008617970718F4681B790B02C060E070E0BE
:1002A000209161008417950778F47A01E81AF90A19
:1002B000E0E5EE16F10450F0E616F70638F42111E9
:1002C000E5CFC39AC2982EC0E12CF12C211129C090
:1002D000F0E5EF16F10428F180E090E026E030E050
:1002E00040E050E058D029833A834B835C836D8390
:1002F0007E838F839887B70180E090E025E030E02F
:1003000040E050E048D049015A0189819A81AB818F
:10031000BC8188159905AA05BB0518F0C398C29A37
:1003200001C021D0E6DE9CCFDC0150962D913C919E
:10033000519752969C915297E92FF0E0EE0FFF1FD4
:10034000EA0FFB1F260F371F40815181241B350BFD
:1003500051963C932E935097718360839F5F977063
:1003600052969C930895C398C2980895C39AC29ACE
:100370000895F89484E084BB18BA8FE087BB789422
:100380009DE088E10FB6F894A89581BD0FBE91BDA0
:10039000F1DE68940010E894A0E0B0E0E1EDF1E057
:1003A0001DC0EFEFE7F959016A015E23550FEE0812
:1003B000FE2C87019B01AC019E23990F660B762FC3
:1003C000CB0131D0CDB7DD27EAE01FC02F923F929D
:1003D0004F925F926F927F928F929F92AF92BF9255
:1003E000CF92DF92EF92FF920F931F93CF93DF9301
:1003F000CDB7CA1BCDBFDD2709942A883988488824
:100400005F846E847D848C849B84AA84B984C88430
:10041000DF80EE80FD800C811B81AA81D981CE0F07
:10042000CDBFCA2F0895DF93CF939F92A0E49A2E59
:100430000024D001E001F00116950795F794E794A8
:10044000D794C794B794A79448F41068A20FB31F29
:10045000C41FD51FE61FF71F081E191E220F331FCA
:10046000441F551F661F771F881F991F9A9421F7F5
:100470009D01AE01BF01C00111249F90CF91DF917A
:060480000895F894FFCF7F
:00000001FF
